:020000040800F2
:10000000E8060020CD010008AD0D00086F0C0008C7
:10001000A90D0008E3070008DD1900080000000032
:100020000000000000000000000000007916000839
:100030000908000800000000071400088D170008D8
:10004000E7010008E7010008E7010008E7010008F0
:10005000E7010008E7010008E7010008E7010008E0
:10006000E7010008E7010008E7010008E7010008D0
:10007000E7010008E7010008E7010008E7010008C0
:10008000E7010008E7010008E7010008E7010008B0
:10009000E7010008E7010008E7010008E7010008A0
:1000A000E7010008E7010008E7010008E701000890
:1000B000E7010008E7010008E7010008E701000880
:1000C000E7010008E7010008E7010008E701000870
:1000D000E7010008E7010008E7010008E701000860
:1000E000E7010008E7010008E7010008E701000850
:1000F000E7010008E7010008E7010008E701000840
:10010000E7010008E7010008E7010008E70100082F
:10011000E7010008E7010008E7010008E70100081F
:10012000E7010008E7010008E7010008E70100080F
:1001300000F002F800F03AF80AA090E8000C8244BF
:100140008344AAF10107DA4501D100F02FF8AFF29C
:10015000090EBAE80F0013F0010F18BFFB1A43F0A5
:10016000010318474C3400006C340000103A24BFDF
:1001700078C878C1FAD8520724BF30C830C144BF0C
:1001800004680C607047000000230024002500264E
:10019000103A28BF78C1FBD8520728BF30C148BFEA
:1001A0000B6070471FB51FBD10B510BD00F031F8D2
:1001B0001146FFF7F7FF01F0A7FC00F04FF803B47A
:1001C000FFF7F2FF03BC00F057F800000948804732
:1001D00009480047FEE7FEE7FEE7FEE7FEE7FEE729
:1001E000FEE7FEE7FEE7FEE704480549054A064B41
:1001F000704700009117000831010008E800002056
:10020000E8060020E8020020E8020020704770475E
:100210007047754600F02CF8AE4605006946534617
:1002200020F00700854618B020B5FFF7DDFFBDE8D8
:1002300020404FF000064FF000074FF000084FF04D
:10024000000B21F00701AC46ACE8C009ACE8C009DE
:10025000ACE8C009ACE8C0098D46704710B504464B
:10026000AFF300802046BDE81040FFF7A8BF0000B4
:10027000004870478800002001491820ABBEFEE707
:10028000260002007047000010B50821014800F068
:10029000ECFC10BD0008014010B50821014800F039
:1002A000E2FC10BD0008014008B50121042001F066
:1002B000ABF80820ADF8000010208DF803000320F3
:1002C0008DF8020069460E4800F0CEFB08210C486C
:1002D00000F0CBFC1020ADF8000000208DF80300EA
:1002E00003208DF802006946054800F0BDFBFFF7CA
:1002F000CBFF01F003F9002001F072F908BD000006
:100300000008014010B5FFF7C7FF182001F03EF9C3
:10031000022001F03BF9FFF7B7FF10BD70B50546AD
:100320000C46FFF7B9FFC4F3012141EA8501C8B2C9
:1003300001F02CF9E0B201F029F9FFF7A5FF70BD3B
:1003400010B50D48006820F470400B49086008465D
:10035000006840F44050086000200849086000F040
:1003600011F801200649C1F8900100F00BF80020B7
:100370000249091D086010BD000C01408C8121421A
:100380000080214210B50A2000F088FA10BD00005C
:1003900008B50121082001F037F81820ADF8000059
:1003A00010208DF8030003208DF8020069460248F2
:1003B00000F05AFB08BD0000000C014010B50D48CC
:1003C000006820F470400B4908600846006840F45B
:1003D00040500860012008490860FFF7D3FF012062
:1003E0000649C1F89001FFF7CDFF00200249091D21
:1003F000086010BD000C01408C8121420080214228
:1004000010B50F48006820F470400D490860084698
:10041000006840F44050086001200A4908600A4919
:10042000C1F89001FFF7AEFF002006490860FFF712
:10043000A9FF00200449C1F89001FFF7A3FF10BDF8
:10044000000C01408C8121420080214210B50D48F2
:10045000006820F470400B4908600846006840F4CA
:100460004050086000200849086001200749C1F891
:100470009001FFF787FF012003490860FFF782FF23
:1004800010BD0000000C01408C81214200802142FF
:1004900010B500241348006820F47040114908602A
:1004A0000846006840F40040086000200E490860DB
:1004B000FFF768FF01200D49C1F89001FFF762FFC7
:1004C00007E0601CC4B2FA2C03DDFFF7BFFF012078
:1004D00010BD0548843800680028F2D10249086040
:1004E00000BFF5E7000C01409081214200802142CD
:1004F00070B500241F48006820F470401D49086052
:100500000846006840F44050086000201A4908601E
:1005100001201A49C1F88C01FFF734FF1548006823
:1005200020F47040134908600846006840F4004019
:100530000860002513E06006040E01200E490860E3
:100540000E48D0F80C0108B144F00104FFF71AFF7F
:10055000002009490860FFF715FF681CC5B2082D87
:10056000E9DB00200449091F0860FFF70BFF204664
:1005700070BD0000000C01409081214200802142AA
:1005800070B504461848006820F4704016490860A9
:100590000846006840F44050086000251CE004F064
:1005A0008000802803D101201049086002E000206B
:1005B0000E490860FFF7E6FE01200C49091D08609E
:1005C000FFF7E0FE00200A49C1F89001FFF7DAFECC
:1005D0006006040E681CC5B2082DE0DB002003494C
:1005E0000860FFF7CFFE70BD000C01408C812142F6
:1005F0000080214238B504460D46002000900223B9
:100600006A462946204600F034FB9DF801009DF81B
:10061000001040EA012000B238BD00002DE9F0478B
:1006200004464FF000080025032C02DD0020BDE841
:10063000F087032000F060F8002000F03BF8002075
:1006400000F0D1F8002000F046F81CB9042000F0BA
:10065000A3F810E0012C03D1052000F09DF80AE07A
:10066000022C03D1062000F097F804E0032C02D1FD
:10067000072000F091F801214820FFF7BBFF1FFA87
:1006800080F80A2000F0E4F800214820FFF7B2FFCC
:10069000814602F0B7F9074605480168384602F07E
:1006A000FDF9064602F092F905B2A8B2BFE70000D4
:1006B0008400002070B5054601214820FFF79AFF0D
:1006C000044624F0040444EA8504A2B2012148202F
:1006D00000F074F870BD70B5054601214820FFF7A1
:1006E00089FF044624F0100444EA0514A2B2012153
:1006F000482000F063F870BD70B505460121482020
:10070000FFF778FF044624F003042C43A2B2012132
:10071000482000F053F870BD70B504460121482010
:10072000FFF768FF054625F4606545EA442005B2F9
:10073000AAB20121482000F041F8062C22D2DFE8BD
:1007400004F0080D0312171C4FF076501149086091
:100750001DE04FF079500F49086018E04FF07850D5
:100760000C49086013E04FF074500A4908600EE02D
:100770004FF072500749086009E04FF0705005498A
:10078000086004E04FF076500249086000BF00BFE7
:1007900070BD00008400002070B50546012148208E
:1007A000FFF728FF044624F4E04444EA053004B28D
:1007B000A2B20121482000F001F870BDF8B505464D
:1007C0000E4614460020009020128DF80000E0B282
:1007D0008DF8010002236A463146284600F07EFA71
:1007E000F8BD00BFFEE770B5054601214820FFF7C0
:1007F00001FF044624F0080444EAC504A2B2012122
:100800004820FFF7DBFF70BD7047000010B56FF0A8
:10081000040000F0A7FF0A4800680A49B0FBF1F0A5
:10082000094908700846007800EB4001C1EBC01090
:100830004FF6FF7101EAC0000449088010BD0000B6
:100840000000002000127A008000002082000020BA
:100850000146114A12884A434FF0E0235A610022B0
:100860009A611A46126942F001021A6100BF4FF004
:10087000E022106900F001021AB100F48032002A6F
:10088000F5D04FF0E022126922F001024FF0E02390
:100890001A6100229A617047820000200146114AC5
:1008A00012784A434FF0E0235A6100229A611A46B7
:1008B000126942F001021A6100BF4FF0E022106994
:1008C00000F001021AB100F48032002AF5D04FF096
:1008D000E022126922F001024FF0E0231A610022A7
:1008E0009A617047800000202DE9F8434F48006866
:1008F00060BB0020FFF792FE00B24D490880084619
:10090000B0F900104B4800F03DFD4A494A4801F05B
:1009100076F81023474A0021084600F0B1FC012078
:10092000FFF77CFE00B2454908800846B0F9001088
:10093000434800F027FD42493F4801F060F810238A
:100940003F4A0221002000F09BFC6DE00020FFF7F1
:1009500065FE00B2364908800846B0F9000001F093
:100960005CFC0646374A384B01F0AAFC8046002260
:10097000364B01F09DFA044601F0B4F934490860A1
:100980002B48B0F900102B4800F0FCFC29492A48FC
:1009900001F035F810232FA20021084600F070FC6A
:1009A0002B48006801F0B6FE0446042022460B46A0
:1009B00032210090002000F06FFA0120FFF72EFE98
:1009C00000B21E4908800846B0F9000001F025FC7D
:1009D00006461C4A1C4B01F073FC044600221B4BCC
:1009E00001F066FA804601F07DF91C490860134861
:1009F000B0F90010124800F0C5FC11490E4800F093
:100A0000FEFF102316A20221002000F039FC13483B
:100A1000006801F07FFE0446042022460B46322186
:100A20000090022000F038FABDE8F883740000203E
:100A30002800002030000020003801402A0000205B
:100A40003E0000206F1283C0CA21094000409F4031
:100A500078000020414443303A0000007C00002030
:100A6000414443313A0000002DE9F041024600259F
:100A70000026002000230024002791F803C00CF07A
:100A80000F0591F803C00CF0100CBCF1000F03D05F
:100A900091F802C04CEA050591F800C0BCF1000FC6
:100AA00031D0146800202BE04FF0010C0CFA00F359
:100AB000B1F800C00CEA03069E4220D183004FF03B
:100AC0000F0C0CFA03F7BC4305FA03FC4CEA0404D0
:100AD00091F803C0BCF1280F06D14FF0010C0CFABD
:100AE00000FCC2F814C00AE091F803C0BCF1480F42
:100AF00005D14FF0010C0CFA00FCC2F810C0401CEC
:100B00000828D1D31460B1F800C0BCF1FF0F34DD68
:100B1000546800202EE000F1080C4FF0010808FA9C
:100B20000CF3B1F800C00CEA03069E4221D1830009
:100B30004FF00F0C0CFA03F7BC4305FA03FC4CEA28
:100B4000040491F803C0BCF1280F05D100F1080C92
:100B500008FA0CF8C2F8148091F803C0BCF1480FF1
:100B600007D100F1080C4FF0010808FA0CF8C2F8A0
:100B70001080401C0828CED35460BDE8F0810000EE
:100B800008B50121092000F03FFC01210B4800F0CD
:100B900019F84FF44070ADF8000010208DF80300F4
:100BA00003208DF8020069460548FFF75DFF4FF40A
:100BB0004071034800F059F808BD00000002300001
:100BC000000C0140F0B50A46002300240021002556
:100BD00000F00046B6F1004F02D11D4EF16901E070
:100BE0001B4E7168C0F3034583B200F44016B6F59E
:100BF000401F08D121F07061154E766826F07066AE
:100C0000134F7E6012E000F48016B6F5801F06D107
:100C1000032606FA05F4A14341F0706106E0460D93
:100C2000360103FA06F6B14341F0706122B1460D78
:100C3000360103FA06F6314300F00046B6F1004FE4
:100C400002D1034EF16101E0014E7160F0BD000080
:100C5000000001400246002093680B400BB10120C8
:100C600000E000207047416170470161704700BF9C
:100C7000FEE72DE9F0410446884615461E46FFF77B
:100C8000BFFB002141EA4401C8B2FFF779FCFFF73E
:100C9000FFFB4046FFF774FCFFF7FAFBFFF7B0FBE2
:100CA000012101EB4401C8B2FFF76AFCFFF7F0FB3A
:100CB00000270DE0FFF71CFC2870781C864202D14B
:100CC000FFF77CFB01E0FFF73BFB6D1C781CC7B214
:100CD000B742EFDBFFF7BAFBBDE8F0812DE9F04149
:100CE00005460E4617469846FFF78AFB002141EA63
:100CF0004501C8B2FFF744FCFFF7CAFB3046FFF7D7
:100D00003FFCFFF7C5FB002406E0385DFFF738FC29
:100D1000FFF7BEFB601CC4B24445F6DBFFF796FB51
:100D2000BDE8F08110B5002408211348FFF792FFB9
:100D300068B91420FFF78CFD00BF08210E48FFF7AB
:100D400089FF0028F9D01420FFF782FD012410212B
:100D50000948FFF77FFF68B91420FFF779FD00BF4E
:100D600010210548FFF776FF0028F9D01420FFF77F
:100D70006FFD0224204610BD0018014008B5012176
:100D8000402000F041FB48208DF803001820ADF80A
:100D9000000003208DF8020069460248FFF764FE58
:100DA00008BD00000018014000BFFEE7704708B50D
:100DB0004FF4A06000F046F825208DF800000120D7
:100DC0008DF801008DF802008DF80300684600F0F0
:100DD00001F808BD70B5002100230F22C47804B3C8
:100DE000154C246804F4E064C4F5E064210AC1F100
:100DF0000403CA40447804FA03F184781440214380
:100E000009010E4C0678A155047804F01F05012451
:100E1000AC4005786D11AD0005F1E025C5F8004145
:100E200009E0047804F01F050124AC40044D067865
:100E3000761145F8264070BD0CED00E000E400E0BE
:100E400080E100E002490143024A1160704700005E
:100E50000000FA050CED00E070B5002418E004F184
:100E6000B000002100F027FA0021084600F023FA24
:100E70000021102000F01FFA002505E001210020CC
:100E800000F019FA681CC5B2802DF7DB601CC4B2F3
:100E9000082CE4DB70BD00002DE9FF5F86B014462E
:100EA0001D464FF0010A00200390049005904FF07A
:100EB0000109002600BF834600221346204629462A
:100EC00001F0C2F909D285F00040CDE9004020468A
:100ED000019901F045F9064604E02046294601F053
:100EE0003FF90646304601F098F922462B46CDE9F7
:100EF000000101F019FB074688460022554B384691
:100F0000414601F0DDF9CDE9000101F059F98346D0
:100F100007E009EB89004FEA40090AF1010000F0FF
:100F2000FF0A0A2096FBF0F090FBF9F00028F0D1C0
:100F300042F2107096FBF0F00A2190FBF1F201FBF7
:100F40001200C0B28DF80C004FF47A7096FBF0F0EE
:100F500090FBF1F201FB1200C0B28DF80D0064208D
:100F600096FBF0F090FBF1F201FB1200C0B28DF89D
:100F70000E000A2096FBF0F090FBF1F201FB12004C
:100F8000C0B28DF80F000A2096FBF0F100FB116053
:100F9000C0B28DF810002E208DF811004FF47A7039
:100FA000BBFBF0F00A21B0FBF1F201FB12008DF85F
:100FB00012006420BBFBF0F0B0FBF1F201FB120069
:100FC0008DF813000A20BBFBF0F0B0FBF1F201FB3F
:100FD00012008DF814000A20BBFBF0F100FB11B0E9
:100FE0008DF8150000211498801D03AA115489461C
:100FF00008E003A810F80900303003A901F809003F
:1010000009F10109B9F10A0FF3DB0022134620466A
:10101000294601F019F908D20AF1010000F0FF0A8F
:101020002D20CAF1050103AA50542E208DF811007D
:1010300000211498801D03AA1154CAF1050003A9C8
:1010400042181023DDE9061000F01AF90AB0BDE8D5
:10105000F09F00000088C34010B54FF4807109482C
:10106000FFF703FE4FF400710648FFF7FEFD4FF453
:1010700000710448FFF7F7FD4FF480710148FFF756
:10108000F2FD10BD000C014010B54FF4807107480F
:10109000FFF7EBFD4FF400710448FFF7E4FD4FF458
:1010A00000710248FFF7E1FD10BD0000000C014097
:1010B00010B54FF480710448FFF7D7FD4FF48071ED
:1010C0000148FFF7D0FD10BD000C014010B5FFF73F
:1010D00057FD4FF44870FFF7BBFB0021AE2000F036
:1010E000EAF80021084600F0E6F80021102000F0A0
:1010F000E2F80021402000F0DEF80021B02000F0EE
:10110000DAF80021812000F0D6F80021FF2000F05D
:10111000D2F80021A12000F0CEF80021A62000F096
:10112000CAF80021A82000F0C6F800213F2000F0F6
:10113000C2F80021C82000F0BEF80021D32000F042
:10114000BAF80021084600F0B6F80021D52000F0DA
:10115000B2F80021802000F0AEF80021D82000F085
:10116000AAF80021052000F0A6F80021D92000F0FF
:10117000A2F80021F12000F09EF80021DA2000F012
:101180009AF80021122000F096F80021DB2000F0F0
:1011900092F80021302000F08EF800218D2000F020
:1011A0008AF80021142000F086F80021AF2000F01A
:1011B00082F810BD70B504460D4605F1B00000215F
:1011C00000F079F8102141EA1410002100F073F8C2
:1011D00004F00F00002100F06EF870BD2DE9F0471B
:1011E00007460E469046994600250024A8F12000A7
:1011F000C5B27F2F02DD0027B01CC6B2B9F1100FB7
:1012000024D131463846FFF7D5FF002408E004EB2F
:101210000511194A505C012100F04DF8601CC4B260
:10122000082CF4DB701CC1B23846FFF7C3FF002462
:1012300009E004EB051108310F4A505C012100F070
:101240003AF8601CC4B2082CF3DB12E03146384691
:10125000FFF7B0FF00240AE005EB4501074A02EB67
:101260004101085D012100F026F8601CC4B2062C83
:10127000F2DBBDE8F0870000BE2F0008962D0008C5
:101280002DE9F04105460E4614461F460EE0227831
:101290003B4631462846FFF7A1FF05F10800C5B2DD
:1012A000782D02DD0025B01CC6B2641C2078002811
:1012B000EDD1BDE8F08170B504460D461DB1E0B238
:1012C00000F04AF802E0E0B200F030F870BD000033
:1012D0002DE9F04105462C464FF480711248FFF786
:1012E000C2FC00261CE0274607F08007802F04D1AF
:1012F000B9000D48FFF7B9FC04E04FF400710A484B
:10130000FFF7B1FC6006040E4FF480710648FFF74A
:10131000ACFC4FF480710448FFF7A5FC701CC6B20A
:10132000082EE0DBBDE8F081000C014010B504465A
:10133000FFF792FE7820FFF7CBFFFFF7B9FE002002
:10134000FFF7C6FFFFF7B4FE2046FFF7C1FFFFF728
:10135000AFFEFFF799FE10BD10B50446FFF77CFE07
:101360007820FFF7B5FFFFF7A3FE4020FFF7B0FF9F
:10137000FFF79EFE2046FFF7ABFFFFF799FEFFF752
:1013800083FE10BD10B5401D002903DA49422D220D
:10139000027001E0202202704FF47A7291FBF2F2A7
:1013A0000A2392FBF3F403FB14223032D3B2421C23
:1013B000104613702E23421C10461370642291FBBA
:1013C000F2F20A2392FBF3F403FB14223032D3B27D
:1013D000421C104613700A2291FBF2F20A2392FB80
:1013E000F3F403FB14223032D3B2421C10461370C4
:1013F0000A2291FBF2F302FB13123032D3B2421CE9
:101400001046137010BD704729B1064A9269024315
:10141000044B9A6104E0034A92698243014B9A614A
:10142000704700000010024030B500210022002467
:1014300000232D4D6D6805F00C0121B1042905D064
:10144000082923D105E0294D056022E0274D0560DC
:101450001FE0254D6D6805F47012234D6D6805F48D
:101460008034022505EB92421CB9214D554305609D
:101470000BE01D4D6D6805F400351DB11C4D554345
:10148000056002E0194D5543056002E0174D056007
:1014900000BF00BF144D6D6805F0F0010909154D3E
:1014A0006B5C0568DD4045600F4D6D6805F4E061DB
:1014B000090A104D6B5C4568DD4085600A4D6D681A
:1014C00005F46051C90A0B4D6B5C4568DD40C56091
:1014D000054D6D6805F44041890B074D6B5CC5688F
:1014E000B5FBF3F5056130BD0010024000127A0033
:1014F00000093D00140000202400002000B587B042
:1015000001210420FFF780FF01210803FFF77CFF82
:10151000E020ADF8180018208DF81B0003208DF88E
:101520001A0006A91748FFF79FFAE0211548FFF7B0
:101530009CFB0020ADF804004FF48270ADF806006B
:101540000020ADF80800ADF80A000120ADF80C004D
:101550004002ADF80E003820ADF810000020ADF8C4
:1015600012000720ADF8140001A9074800F066F842
:101570000121054800F048F8FF2000F007F807B007
:1015800000BD0000000801400030014070B5054674
:10159000002405E0601CC4B2C82C01DD002070BD31
:1015A00002210E4800F03CF80028F3D029460B48F1
:1015B00000F042F8002405E0601CC4B2C82C01DD34
:1015C0000020ECE70121054800F02AF80028F3D0BC
:1015D000024800F02EF8C0B2E1E700000030014000
:1015E00010B50446074800884FF6C7710840054902
:1015F000088008460088204308800121014800F047
:1016000003F810BD0030014021B1028842F04002D1
:10161000028004E002884FF6BF731A4002807047D0
:101620000246002013890B400BB1012000E000208E
:1016300070470146888970478181704710B5002244
:10164000028802F441520B884C8823438C88234340
:10165000CC8823430C8923434C8923438C8923431F
:10166000CC8923431A430280838B4FF2FF742340BB
:1016700083830B8A038210BD704710B500F002F817
:1016800010BD00000CB500200190009033480068A8
:1016900040F480303149086000BF3048006800F4F1
:1016A000003000900198401C0190009818B90198F2
:1016B000B0F5A06FF1D12948006800F4003010B1F6
:1016C0000120009001E0002000900098012843D103
:1016D0002348006840F0100021490860084600686F
:1016E00020F0030008600846006840F0020008602F
:1016F0001A484068194948600846406848600846EA
:10170000406840F4806048600846406820F47C10DF
:1017100048600846406840F4E810486008460068A1
:1017200040F08070086000BF0C48006800F0007056
:101730000028F9D00948406820F0030007494860B4
:101740000846406840F00200486000BF0348406817
:1017500000F00C000828F9D10CBD00000010024078
:1017600000200240042808D14FF0E021096941F02F
:1017700004014FF0E022116107E04FF0E021096918
:1017800021F004014FF0E022116170477047000022
:1017900010B51348006840F0010011490860084680
:1017A0004068104908400E494860084600680E49E4
:1017B00008400B4908600846006820F48020086053
:1017C0000846406820F4FE0048604FF41F0088601F
:1017D000FFF753FF4FF000600449086010BD0000A0
:1017E000001002400000FFF8FFFFF6FE08ED00E0E9
:1017F00021B1828942F40052828104E082894DF64F
:10180000FF731A408281704700B585B00121042022
:10181000FFF7FAFD01218803FFF7F6FD4FF4007092
:10182000ADF8100018208DF8130003208DF8120079
:1018300004A91748FFF718F94FF48060ADF81000BD
:1018400004208DF8130004A91148FFF70DF94FF497
:10185000E13000900020ADF80400ADF80600ADF8CE
:101860000800ADF80C000C20ADF80A0069460948E4
:1018700000F044F8FFF79BFA012240F22551054899
:1018800000F017F801210348FFF7B2FF05B000BDD3
:10189000000801400038014002460020B1F5007FF9
:1018A00000D100BF13880B400BB1012000E00020E5
:1018B0007047F0B50346002400260025002040F6BE
:1018C0006A17B94200D100BF1846C1F3421401F0B3
:1018D0001F06012707FA06F5012C01D10C3004E0A0
:1018E000022C01D1103000E014301AB107682F43E8
:1018F000076002E00768AF430760F0BD2DE9F047DD
:1019000086B005460E460024A24600BFA146002729
:10191000B08900B100BF2F462C8A4CF6FF700440FE
:10192000F08804432C82AC894EF6F3100440B08852
:1019300031890843718908430443AC81AC8A4FF66E
:10194000FF400440B0890443AC8201A8FFF76CFD5E
:101950001F48874202D1DDF810A001E0DDF80CA09D
:10196000A88900F4004040B10AEBCA0000EB0A105D
:1019700031684900B0FBF1F807E00AEBCA0000EB60
:101980000A1031688900B0FBF1F86420B8FBF0F070
:1019900004012009642101FB1089A88900F400409A
:1019A00040B1322000EBC900B0FBF1F000F00700BD
:1019B000044308E0322000EB09106421B0FBF1F091
:1019C00000F00F0004432C8106B0BDE8F087000052
:1019D00000380140C1F308028280704700BFFEE773
:1019E00070B504460D4629462046FFF7F3FF00BFB9
:1019F00080212046FFF750FF0028F9D070BD70B558
:101A000006460C46002500BF615D3046FFF7E8FF43
:101A10006D1C605D0028F7D100BF40213046FFF704
:101A20003BFF0028F9D070BD10B5044634B1012C3D
:101A300009D0022C0CD0032C15D10EE0142101206A
:101A4000FEF76CFC14E033210120FEF767FC0FE089
:101A5000CD210120FEF762FC0AE04FF40071012065
:101A6000FEF75CFC04E0CD210120FEF757FC00BF2F
:101A700000BF10BD2DE9F04105460E461446214633
:101A8000284600F0D7FF1AD22146284601F003F974
:101A90000746314601F0CEF811D21A480288006894
:101AA000401E184B91B218600120FEF737FC154814
:101AB0000068012824DC02201249086020E0214649
:101AC000284601F0B7F81BD22146284601F0EEF86F
:101AD0000746314601F0AEF812D20A480288006883
:101AE000401C084B91B218600120FEF717FC054816
:101AF000006843F6FF71884202DB481E0149086016
:101B0000BDE8F081680000201CB5FEF7CDFBFEF7B4
:101B1000F9FB4FF400710120FEF700FCFEF776FEA2
:101B2000FFF7D4FAFFF798F9FFF76EFEFEF730FCE7
:101B30000020FEF7F1FDFFF721F9B8E0FEF7D4FE33
:101B40004FF49670FEF784FE5948B0F9000000F09B
:101B500064FB07460022574B00F0AAF9054600F047
:101B6000C1F882465448B0F9000000F056FB074621
:101B70000022504B00F09CF9054600F0B3F80446F3
:101B8000FFF7D0F820B1012803D0022813D106E0D6
:101B900011E04A480068C043484908600BE04848E3
:101BA0000068401C4649086008460068032801DDBB
:101BB0000120086000BF00BF40480068012813D121
:101BC000204600F0A7FD05463E4A3F4B00F078FB5B
:101BD000074600224FF0804300F06AF9CDE900018A
:101BE00000F080F8814601E0A14600BF344800685B
:101BF000012804D0022835D0032841D139E04846D5
:101C000000F088FD054600224FF0804300F056FCAE
:101C10000FD22E4908680968491E2C4B1960FFF73E
:101C200003FF2A48006800281BDA002027490860C3
:101C300017E0484600F06EFD05460022244B00F0F8
:101C400003FB0ED2214908680968491C1F4B196023
:101C5000FFF7EAFE1D480068032802DD03201B4948
:101C600008600DE04A461B494FF07E50FFF702FF27
:101C700006E04A4618494FF07C50FFF7FBFE00BFD4
:101C800000BF5146204600F0DFFD8346102313A21B
:101C900004210020FFF7F4FA584600F03BFD05460A
:101CA00004202A460B461E210090FFF7F5F845E771
:101CB0002800002000408F402A00002074000020EF
:101CC0006C0000206F1283C0CA2109407000002000
:101CD0000000E03FCDCC4C3ECDCCCC3D616D703AA8
:101CE0000000000021F00042A2F16052B2F5801F16
:101CF00001F0004328BFD2F17F6C0BD95FEA001CD2
:101D000043EAC20242EB507018BF704728BF20F070
:101D100001007047B2F5801FBCBF184670474FEAFC
:101D2000410C1CF5001F02D2084600F07EBF70B5C2
:101D300000F070FB00000089FFF7F6BF4FF0004095
:101D4000A0F580007047000010B591EA030F48BF6E
:101D500083F0004300F1FC83841A71EB030C05D27D
:101D6000121943EB0C03001B61EB0C01DFF824E1BB
:101D70004FEA1154A4EB135C1EEA430F18BF9EEA0E
:101D8000445F73D023EA0E03DCF1200E21EA0451F4
:101D900043F4801332D322FA0CFE10EB0E0023FA28
:101DA0000CFE41EB0E01CCF1200E03FA0EFE10EBFF
:101DB0000E0051F10001B1F5801FCCF1200E32D29E
:101DC00001EB045112FA0EF2BDE8104058BF704703
:101DD000401C38BF5FEA420218BF7047002814BF9A
:101DE00020F0010041F100014FEA410313F5001F0B
:101DF00038BF7047A1F1C04100F05ABB012A43EB44
:101E00000302ACF1200CDCF11F0E32BF4FF0000ECC
:101E100023FA0CF310EB030041EB0451B4EB115F18
:101E2000D0D0A1EB045101F5801149085FEA3000E0
:101E300001EB04510ED350F1000038BF12FA0EFE30
:101E400008D1BDE81040C9E7401C38BF5FEA420234
:101E5000CAD1C3E7BDE810404FEA410313F5001FA4
:101E600038BF7047A1F1C04100F022BB9EEA445F39
:101E700008D011EA5E0FBDE8104004BF01F0004138
:101E800000207047BDE8104070B500F0C3FA00BFF5
:101E900064FBBE3E0000E0FF491058BFC1F1404165
:101EA0005B1058BFC3F140438B42EFF30080704793
:101EB0002DE9C04130B4DFF8A0C23CEA111418BFCC
:101EC0003CEA131400F0EC8081EA03051CEA1114CB
:101ED00044EAD57418BF1CEA131500F0C780A4EBC0
:101EE00005044FF0004545EAC12145EAC32341EA14
:101EF000505143EA525304F17F74994204F500347F
:101F00004FEAC0204FEAC22208BF904200F09C80F6
:101F10004FEA13650FF24016765D4FEA134506FB54
:101F200005F7C7F1807706FB07F74FEAD737A7FB1E
:101F300003687642C8F58038A7FB06CE38BFA8F103
:101F4000010807FB08E64FF0000EA6FB028CE6FB3B
:101F500003CEDCF1000CCEF1004E38BFAEF1010E25
:101F6000A6FB0C584FF000074FF00005E6FB0E876C
:101F7000A1FB08C6A0FB07CE16EB0E0645F1000537
:101F8000E1FB076515F1E04E7EBFA4F580345FEA02
:101F900046066D4116F1800745F100054FEA172707
:101FA0004FEA066647EA0567A6F1DE46B6F1805FAE
:101FB0004FEA15251FD9384624F0010C05EBC471F2
:101FC000BCF1FE6F01EB0C1102D8F0BCBDE8008142
:101FD00024425CBF01F5801E9EEAC47F02D4F0BC9F
:101FE000BDE80081244238D4F0BCA1F1C041BDE875
:101FF000004100F05DBA4FEAD22242EA43524FEA72
:10200000D323A7FB02864FEAD02040EA415007FBCA
:1020100003661EEA0E0F4FEAD12105FB026658BF88
:10202000A6EB0056B6EB00564FEA520E4EEAC37EC0
:1020300018EB0E0E56EB530EBDD518EB02085E41A1
:102040007F1C55F10005B6E74FF480154FF00007EF
:102050004FF000064FF00008ADE7F0BC4FF0000075
:1020600001F1C04101F00041BDE8008111EA0C1FFF
:102070000CEA131500D00CE013EA0C1F00F02580C9
:102080004FF00000F0BC81EA030101F00041BDE81F
:102090000081F0BCBDE8004181EA030100F008BA0C
:1020A000F0BCBDE8004170B500F0B4F9097EFC3E1B
:1020B00000F007B881EA03014FF0000001F0004191
:1020C000704781EA030100F0F3B9F0BCBDE80041BC
:1020D0004FF0000021497047FFFDFBF9F7F5F4F2DE
:1020E000F0EEEDEBE9E8E6E4E3E1E0DEDDDBDAD8B3
:1020F000D7D5D4D3D1D0CFCDCCCBCAC8C7C6C5C411
:10210000C2C1C0BFBEBDBCBBBAB9B8B7B6B5B4B327
:10211000B2B1B0AFAEADACABAAA9A8A8A7A6A5A412
:10212000A3A3A2A1A09F9F9E9D9C9C9B9A999998D6
:102130009797969595949393929191908F8F8E8E79
:102140008D8C8C8B8B8A8989888887878685858406
:1021500084838382828181800000FF070000F87FF2
:102160004FEA41034FEA5353A3F58063D3F11E03B3
:10217000C8BFD3F1210C0CDD4FF0004242EAC1226E
:1021800042EA505232FA03FC8CEAE17CACEBE1709B
:102190007047102BC4BF0020704703F5787CBCF15A
:1021A000FF3F04D06FF0004282EA2100704770B513
:1021B00000F030F94992248000207047F2E70000D7
:1021C0004FEA1153A3F58063D3F11E03A8BFD3F1E7
:1021D000200C08DB4FF0004242EAC12252EA505282
:1021E00032FA03F0704709420BD4102BC4BF002011
:1021F000704703F5787CBCF1FF3F05D04FF0FF300E
:1022000070474FF00000704770B500F003F900BF51
:102210004992248000207047F0E710F0004248BF48
:102220004042B0FA80F310FA03F10AD0C3F11D0363
:1022300003F580634FEA415002EB035202EBD121D8
:1022400070474FF00000704751EA030C17D41CF59B
:10225000801F58BFBCF5801F00F10680994218BF4F
:10226000704708BF9042704707D711F5801F58BFCD
:1022700013F5801F19D499427047894270471CF5A5
:10228000801F08D5BCF5801FF7D58B4218BF70475B
:1022900008BF824270474FF4001C1CEB410F38BF4F
:1022A0001CEB430F01D28B42704770B500F0B2F8BF
:1022B000922449004FF000514FF08053FFF7ECBDDE
:1022C000DFF848C170B51CEA111E1EBF1CEA1315C9
:1022D0009EEA0C0F95EA0C0F00F06F8081EA030470
:1022E00023EA4C134EEAD47E21EA4C1141F48011CA
:1022F00043F48013AE44A1FB024CA0FB0365AEF196
:102300007F7E361955EB0C05A1FB034C4CF1000305
:10231000A0FB021C16EB0C06654153F100030942B9
:1023200018BF46F0010613F4007F0BD14FEA0331CA
:102330004FEA0530340341EA155140EA16506FF078
:1023400003020AE04FEAC3214FEAC520F40241EA42
:10235000555140EA56506FF0020202EB2E4201EB5B
:10236000025585EACE710AD05FEA440C18BF24F00A
:10237000004450F1000041F1000120EAD47040F225
:10238000FE7C624500D270BDA84214BF4FF080446D
:102390004FF04044002E08BF0024BEF1806FA8BF5C
:1023A000A1F1C041BDE8704080F282804FF0000092
:1023B00001F1C04101F0004170479EEA0C0F0CEAA8
:1023C000131518BF95EA0C0F06D04FF0000081EAF4
:1023D000030E0EF0004170BD00F01CF88900013EB4
:1023E00000F007B800F009B84FEA430C5FEA5C5C04
:1023F00008D081EA030100F05BB84FEA410C5FEAC4
:102400005C5CF6D14FF00000014970470000FF0707
:102410000000F87F0EF1020E2EF0030E5EF8046B42
:10242000364205D4012A43EB030515F5001F12D8E7
:10243000012841EB010C1CF5001F0CD80ED14FEA0E
:10244000D17C15F5001F0CEB4C0C0CF1020C08BFF5
:102450004CEBD37C04E04FF0080C01E04FEAD37C56
:102460000CEB4C0526FA05F606F00706B6F1040C4F
:1024700006D20EEB860CBDE870404CF0010C6047B4
:10248000DFE80CF0090B02024FF000414FF00000B2
:10249000A1F5002170BD19461046012851EB010439
:1024A00018BFD4F5001484BF002001F0004170BDB6
:1024B0000808A0F500114FEA3101704753EA010CFA
:1024C00017D41CF5801F58BFBCF5801F00F1068093
:1024D0008B4218BF704708BF8242704707D713F579
:1024E000801F58BF11F5801F19D48B4270479B4243
:1024F00070471CF5801F08D5BCF5801FF7D59942A1
:1025000018BF704708BF904270474FF4001C1CEB87
:10251000430F38BF1CEB410F01D2994270470FB4F3
:102520000CBC03BCFFF7C1BE91EA030F10B581F0EC
:1025300000413FF511AC83F0004300F009B8000002
:1025400010B591EA030F48BF83F000433FF504AC98
:10255000841A71EB030C07D212198CF0004C43EB78
:102560000C03001B61EB0C01DFF8A4E14FEA1154EE
:10257000A4EB135C1EEA430F18BF9EEA445F00F011
:10258000B08023EA6E03524221EA0451C3EB6E038A
:1025900038BF5B1EDCF1200E25D322FA0CFE10EBB7
:1025A0000E0043FA0CFE41EB0E01CCF1200E03FAB3
:1025B0000EFE10EB0E0051F10001CCF1200E29D4DB
:1025C00012FA0EF201EB0451BDE8104058BF7047FB
:1025D000401C1CBFB2F1004F704700280CBF491CC3
:1025E00020F00100704712EB020E43EB030218BF0C
:1025F0004FF0010E4EEA4202ACF1200CDCF11E0E4F
:1026000054D943FA0CFE10EB0E0051F1FF31CCF11E
:102610001E0ED5D50EF1010E12FA0EFE404141EB11
:10262000010101EB445C5FEA5C5C10D910EBDE70E9
:1026300001EB045138BFBEF1004FBDE8104018BF98
:10264000704700280CBF491C20F00100704730D2B1
:102650004FEAD42C11F5001124F400641BD0B1FA18
:1026600081F20B3AA41AA41ED2F12003914030FA51
:1026700003F31943904001EBCC71002C01EB0451A2
:10268000BDE81040A8BF704701F1C0414FF0000005
:1026900001F000417047B0FA80F310FA03F100D165
:1026A00010BDE41A173C4805C90AE4E701EB0451E0
:1026B00010BD491001EB0451BDE810404FEA300055
:1026C00002E04FF0000170474A0008BF0042F8D016
:1026D000B2F5001F28BF704701F000414FF0000025
:1026E00070479EEA445F07D011EA5E0FBDE81040D4
:1026F00004BF002100207047BDE8104070B5FFF70F
:1027000089FE00BF40DFF63E83F00041104670476F
:102710000000E0FF43004FEAD30C4FEA3C0C43407B
:102720001FBF40070CF1605113F0FE4F70471CF0C3
:10273000006F03D100200CF0004170470CF0004303
:1027400043EA507010B540EACC0000F028FA00BF10
:10275000000000924FEA0001FFF7AABE4FF00041CF
:102760004FF00000A1F500217047000090EA010F32
:1027700048BF81F0004100F1A082421A3CBF801A9C
:1027800089184FEAD0524FF07F4C1CEA410FA2EB60
:10279000D15318BF9CEA026F00F03B804FF0004C11
:1027A0004CEA00204CEA012121FA03FC10EB0C0C4E
:1027B0001ED202F1FF325FEA1C2040EBC25038BF4C
:1027C00070471CF07F0F4FEA400C18BFBCF17F4FE1
:1027D00038BF7047C3F12003994008BF20F00100C3
:1027E000BCF17F4F38BF7047A0F1C04000F01DBA68
:1027F0004FEA3C00000A40EBC25028BF1CF0FF0F1C
:102800004FEA400CE6D018BFBCF17F4F38BF70478D
:10281000EAE79CEA026F05D010EA5C0F08BF00F0FF
:102820000040704710B500F0BAF900BF64FBBE3E2F
:10283000401058BFC0F14040491058BFC1F140415D
:102840008142EFF3008070474FF47F0C1CEAD012F6
:102850001EBF1CEAD11392EA0C0F93EA0C0F00F092
:10286000858090EA010F48BF42F4807240F4000C6A
:1028700041F400002CF07F4120F07F4000B5814200
:10288000A2EB03020FF2081CACEB504EC0F10000AB
:102890009EF800E04FEA4E0E00FB0EFC38BF4900E8
:1028A0004FEA2C1C02F5FA020CFB0EF34FEACE1E87
:1028B0004FEA112C4FEAC1210EEB635E42EB22423C
:1028C0000EFB0CFC4FEA1C5300FB03114FEA112CCA
:1028D0004FEA01310EFB0CFC4FEADC4C00FB0C1103
:1028E000C14228BF09184CEB03335DF804EB10EB31
:1028F000410143EBC250B2F57C0F38BF704729D578
:1029000012F0F00F1CBF00F1C04000F00040704713
:10291000008182838485868788898B8C8D8E8F91B8
:102920009293959697999A9C9D9FA0A2A3A5A7A8DC
:10293000AAACAEB0B2B3B5B7B9BCBEC0C2C5C7C908
:10294000CCCED1D4D7D9DCDFE2E6E9ECF0F3F7FA6C
:10295000FE0000004FEA400C0CF1807CBCF17E4F81
:1029600028BF7047B0F1C04000F05FB990EA010F96
:102970000CEAD11348BF42F48072624538BF634508
:1029800007D213F47F0F16D080EA010000F0004058
:10299000704710B500F003F9097EFC3E00F005B861
:1029A00080EA010000F00040704780EA010000F07A
:1029B000004000F03AB912F47F0F04BF024870479C
:1029C00080EA010000F031B90000C07F41000B0E29
:1029D000D3F19E0208D950F400034FEA032323FAEF
:1029E00002F048BF4042704710B500F0D8F800BF71
:1029F00049922480002070476FF0004282EA200054
:102A00007047000010F0004148BF4042B0FA80F328
:102A100010FA03F2C3F19D030BD051EAC35101EB4D
:102A20001220530638BF704700F1010008BF20F0A4
:102A30000100704750EA010C00F113801CF5000FF3
:102A400058BFBCF5000F01D48842704707D710F576
:102A5000000F58BF11F5000F15D488427047894206
:102A600070471CF5000F04D5BCF5000FF7D5814267
:102A700070474FF0807C1CEB400F38BF1CEB410FC0
:102A800001D28142704710B500F089F892244900C4
:102A90004FF000504FF08051FFF7CABE4FF47F0C4B
:102AA0001CEAD0121EBF1CEAD11392EA0C0F93EA63
:102AB0000C0F00F0478090EA010F48BF42F480728B
:102AC0004FF0004C4CEA00204CEA012102EB0302DB
:102AD000A0FB0113A2F50002002918BF43F0010377
:102AE0005B0028BF4FEA330342EB22425FEA132C1C
:102AF0004CEBC2502EBFBCEB436FB2F57C0F70475E
:102B00004FEA036CBCF1004F08BF20F00100B2F5A2
:102B10007C0F38BF70470BD582F0FF0212F5803F63
:102B2000C8BF704700F1C040D8BF00F000407047F8
:102B300000F5000C5FEA4C0C48BF7047B0F1C04094
:102B400000F073B890EA010F0CEAD11348BF42F4C9
:102B50008072624538BF634504D280EA010000F00C
:102B60000040704710B500F01AF800BF8900013E20
:102B700000F007B800F009B85FEA410C5FEA1C6C8E
:102B800008D080EA010000F050B85FEA400C5FEA2C
:102B90001C6CF6D14FF00040A0F5800070470EF19C
:102BA000020E2EF0030E5EF8044B244204D44FEACA
:102BB0004102B2F17F4F11D84FEA4003B3F17F4F8A
:102BC0000CD80ED14FEAD07CB2F17F4F0CEB4C0CFD
:102BD0000CF1020C08BF4CEBD17C04E04FF0080C68
:102BE00001E04FEAD17C0CEB4C0324FA03F404F02F
:102BF0000704B4F1040C06D20EEB840CBDE81040BF
:102C00004CF0010C6047DFE80CF0070802024FF0BF
:102C10000040A0F5800010BD0846420018BFD2F168
:102C2000807288BF00F0004010BDFF2141EAD05003
:102C3000C005704751EA000C00F113801CF5000F2D
:102C400058BFBCF5000F01D48142704707D711F57A
:102C5000000F58BF10F5000F15D48142704789420C
:102C600070471CF5000F04D5BCF5000FF7D588425E
:102C700070474FF0807C1CEB410F38BF1CEB400FBE
:102C800001D28842704780EA010081EA000180EAAF
:102C90000100FFF7F8BE80F0004090EA010F7FF5D9
:102CA0006CAD81F0004100F008B8000090EA010F1F
:102CB00048BF81F000413FF560AD421A04D882F070
:102CC0000042A0EB020011444FEAD0524FF07F4C7B
:102CD0001CEA410FA2EBD15318BF9CEA026F4AD005
:102CE0004FF0004C4CEA00204CEA012121FA03FC91
:102CF000B0EB0C0C0FD412F0FE0F36D05FEA4C0094
:102D00001DD5001240EBC25038BF70471CF03F0F7A
:102D100018BF70470BE0A2F101025FEA1C2040EBF4
:102D2000C25038BF70471CF07F0F18BF7047C3F107
:102D30002003994014BF401E20F001007047800816
:102D40004FEA122308BF7047B0FA80FCA2EB0C02D6
:102D5000CCF1280C60FA0CF093EA122F04BF00EBC0
:102D6000C25070474FEAC3707047130A5FEADC1025
:102D700008BF7047F6E79CEA026F04D010EA5C0FC8
:102D800008BF0020704710B5FFF709FF40DFF63E8F
:102D900081F0004070470000000000000000002F9C
:102DA000000000000700070000147F147F140024B7
:102DB0002A7F2A12006264081323003649552250E4
:102DC00000000503000000001C2241000000412219
:102DD0001C000014083E08140008083E0808000003
:102DE00000A06000000808080808000060600000FB
:102DF000002010080402003E5149453E0000427F79
:102E00004000004261514946002141454B310018C4
:102E100014127F10002745454539003C4A49493086
:102E20000001710905030036494949360006494940
:102E3000291E00003636000000005636000000084B
:102E40001422410000141414141400004122140828
:102E500000020151090600324959513E007C12110D
:102E6000127C007F49494936003E41414122007FA2
:102E70004141221C007F49494941007F090909015C
:102E8000003E4149497A007F0808087F0000417FE1
:102E90004100002040413F01007F08142241007F93
:102EA00040404040007F020C027F007F0408107FFA
:102EB000003E4141413E007F09090906003E415163
:102EC000215E007F09192946004649494931000120
:102ED000017F0101003F4040403F001F2040201F74
:102EE000003F4038403F0063140814630007087037
:102EF000080700615149454300007F4141000055EA
:102F00002A552A55000041417F00000402010204B5
:102F100000404040404000000102040000205454A2
:102F20005478007F484444380038444444200038F2
:102F30004444487F00385454541800087E09010264
:102F40000018A4A4A47C007F080404780000447D39
:102F50004000004080847D00007F10284400000075
:102F6000417F4000007C04180478007C0804047849
:102F700000384444443800FC242424180018242435
:102F800018FC007C08040408004854545420000431
:102F90003F444020003C4040207C001C2040201C3E
:102FA000003C4030403C004428102844001CA0A0B5
:102FB000A07C004464544C441414141414140000F1
:102FC0000000000000000000000000000000000001
:102FD00000F8000000000000003330000000001086
:102FE0000C06100C0600000000000000000040C0AD
:102FF0007840C0784000043F04043F04040000709F
:1030000088FC08300000001820FF211E0000F00896
:10301000F000E018000000211C031E211E0000F03B
:103020000888700000001E21232419272110101683
:103030000E00000000000000000000000000000082
:1030400000E0180402000000000718204000000201
:103050000418E00000000040201807000000404075
:1030600080F0804040000202010F010202000000D7
:1030700000F0000000000101011F0101010000003B
:1030800000000000000080B07000000000000000A0
:103090000000000000000001010101010101000029
:1030A00000000000000000303000000000000000C0
:1030B000000080601804006018060100000000E0B5
:1030C00010080810E000000F102020100F00001062
:1030D00010F8000000000020203F202000000070B9
:1030E00008080888700000302824222130000030B1
:1030F0000888884830000018202020110E000000A9
:10310000C02010F8000000070424243F240000F829
:103110000888880808000019212020110E0000E00E
:10312000108888180000000F112020110E000038B0
:103130000808C83808000000003F000000000070C8
:10314000880808887000001C222121221C0000E051
:1031500010080810E0000000312222110F000000CA
:1031600000C0C0000000000000303000000000007F
:1031700000800000000000008060000000000000EF
:103180008040201008000001020408102000404088
:1031900040404040400004040404040404000008CB
:1031A0001020408000000020100804020100007080
:1031B00048080808F0000000003036010000C03068
:1031C000C828E810E0000718272423140B0000008B
:1031D000C038E0000000203C23020227382008F815
:1031E000888888700000203F202020110E00C03009
:1031F000080808083800071820202010080008F8E0
:1032000008080810E000203F202020100F0008F8D8
:103210008888E8081000203F20202320180008F8A4
:103220008888E8081000203F200003000000C0301C
:1032300008080838000007182020221E020008F89D
:1032400008000008F808203F210101213F20000864
:1032500008F8080800000020203F2020000000009F
:103260000808F8080800C08080807F00000008F887
:1032700088C028180800203F20012638200008F8C0
:10328000080000000000203F20202020300008F827
:10329000F800F8F80800203F003F003F200008F841
:1032A00030C00008F808203F200007183F00E01059
:1032B00008080810E0000F10202020100F0008F868
:1032C00008080808F000203F210101010000E0107B
:1032D00008080810E0000F18242438504F0008F8A0
:1032E000888888887000203F2000030C3020007000
:1032F0008808080838000038202121221C001808FE
:1033000008F8080818000000203F2000000008F816
:1033100008000008F808001F202020201F0008785F
:10332000880000C83808000007380E010000F808BF
:1033300000F80008F800033C0700073C03000818E9
:1033400068808068180820302C03032C302008384F
:10335000C800C83808000000203F20000000100806
:103360000808C8380800203826212020180000004E
:1033700000FE020202000000007F40404000000CFE
:1033800030C000000000000000010638C00000024C
:103390000202FE000000004040407F0000000000EC
:1033A000040202020400000000000000000000000F
:1033B000000000000000808080808080808000020B
:1033C00002040000000000000000000000000000F7
:1033D0008080808000000019242222223F2008F8EB
:1033E000008080000000003F112020110E0000002E
:1033F000008080800000000E1120202011000000BD
:1034000000808088F800000E112020103F2000006E
:10341000808080800000001F222222221300008072
:1034200080F0888888180020203F202000000000BD
:10343000808080808000006B94949493600008F8F2
:10344000008080800000203F210000203F2000807D
:103450009898000000000020203F2020000000007D
:1034600000809898000000C08080807F000008F8ED
:10347000000080808000203F24022D3020000008C2
:1034800008F8000000000020203F2020000080807D
:10349000808080808000203F20003F20003F80808F
:1034A000008080800000203F210000203F2000009D
:1034B000808080800000001F202020201F0080804E
:1034C00000808000000080FFA12020110E0000007D
:1034D000008080808000000E112020A0FF8080806E
:1034E00080008080800020203F212000010000001B
:1034F00080808080800000332424242419000080F0
:1035000080E0808000000000001F202000008080FC
:10351000000000808000001F202020103F208080BD
:1035200080000080808000010E300806010080804D
:103530000080008080800F300C030C300F00008072
:103540008000808080000020312E0E31200080809D
:1035500080000080808080818E70180601000080CD
:103560008080808080000021302C222130000000EB
:103570000000807C020200000000003F404000008C
:103580000000FF00000000000000FF00000000023B
:10359000027C800000000040403F00000000000668
:1035A000010102020404000000000000000000000D
:1035B000D035000800000020880000006C010008E1
:1035C00058360008880000206006000088010008C6
:1035D00000A24A04000000000000000001020304F1
:1035E00006070809000000000102030401020304A9
:1035F0000607080902040608000000000000000099
:10360000414443303A2020202020202056004144CD
:1036100043313A20202020202020560041444332CC
:103620003A202020202020205600414443333A20D5
:10363000202020202020560067000000010000000C
:103640000300000001000000000000000000000076
:08365000000000000000803DB5
:0400000508000131BD
:00000001FF
